:020000020000FC
:040000000C94C30099
:040080000C9471006B
:1000E0001895F89430FD04C040FD15C0789418951B
:1000F00051BB503821F1503221F1583021F15230AA
:1001000021F1503421F1503121F1543021F151309D
:1001100021F1503021F160930801613011F162301A
:1001200011F1643011F1683011F1603111F1603278
:1001300011F1603411F1603811F1603011F150E2C9
:10014000D3CF58E0D1CF52E0CFCF50E4CDCF50E164
:10015000CBCF54E0C9CF51E0C7CF50E0C5CF30E09E
:10016000C3CF62E0C3CF64E0C1CF68E0BFCF60E13E
:10017000BDCF60E2BBCF60E4B9CF60E8B7CF60E04D
:10018000B5CF40E0B3CFF89401E20EBF0FEF0DBF43
:100190000DE010E0109390000093910005E110E451
:1001A000109399000093980002E00093710000E022
:1001B0001FEF10BB01BB109307010093080101E082
:1001C00010E004B915B900E015E001B912B900E07A
:1001D0007894009B03D0029B05D0FBCF31E050E820
:1001E00005D0089541E061E001D00895289A02D039
:1001F0002898089500E014EC29E0015010402040B8
:04020000E1F7089585
:00000001FF
